:020000040800F2
:1000000000500020B9170008D5050008D7050008E2
:10001000D9050008DB050008DD0500080000000028
:10002000000000000000000000000000DF050008E4
:10003000E105000800000000E3050008E5050008F0
:10004000011800080118000801180008011800082C
:10005000011800080118000801180008011800081C
:10006000011800080118000801180008011800080C
:1000700001180008011800080118000801180008FC
:1000800001180008011800080118000801180008EC
:1000900001180008011800080118000801180008DC
:1000A00001180008011800080118000801180008CC
:1000B00001180008011800080118000801180008BC
:1000C00001180008011800080118000801180008AC
:1000D000011800080118000801180008011800089C
:1000E00001180008011800080118000800000000AD
:1000F0000000000000000000000000000000000000
:0C01000000000000000000005FF808F1A3
:10010C0010B5054C237833B9044B13B10448AFF345
:10011C0000800123237010BD10000020000000009F
:10012C005C18000808B5034B1BB103490348AFF337
:10013C00008008BD00000000140000205C180008BE
:10014C000C4A1368526803F16043B3F5A04F0BD807
:10015C0002F17843A3F50053B3F5604F06D812F0C3
:10016C00010F05D001207047002070470020704718
:10017C00002070470020000884460023184605E044
:10018C001CF803201044C0B201339BB28B42F7D34E
:10019C007047000000B583B08DF807004FF0FF33B7
:1001AC0001220DF10701034800F041FB03B05DF89B
:1001BC0004FB00BF2C04002000B583B00A230122ED
:1001CC000DF10701054800F098FB0028F6D0034B11
:1001DC001B685B6803B05DF804FB00BF2C040020B7
:1001EC0000B583B0034600228DF8072001220DF1E3
:1001FC000701054800F081FB20B99DF8070003B00A
:10020C005DF804FBFF20FAE72C040020F0B587B062
:10021C0000230593204B984235D307460D461646CE
:10022C00024403F560439A4230D816F0010430D1F1
:10023C0001F09CF90023019303970123049305A972
:10024C0001A801F05FFA78B9B44217D22B5D2919D5
:10025C004A7843EA02220023E119012001F0DEF979
:10026C0038B90234A4B2EFE701F09AF94FF0FF303D
:10027C0007E001F095F94FF0FF3002E001F090F942
:10028C00002007B0F0BD4FF0FF30FAE74FF0FF3021
:10029C00F7E74FF0FF30F4E70020000870B584B0AA
:1002AC0000F0EAFB044600250AE000F0E5FB431BE6
:1002BC00B3F5FA7F13D86420FFF792FF532818D0B8
:1002CC0000F0DAFB031B41F288329342EDD9FFF7C1
:1002DC0037FF00286FD100F0CFFB0446E5E764231D
:1002EC0006224849484800F0A2FA00F0C5FB054632
:1002FC00E1E7FFF761FF0620FFF74CFF322000F02B
:10030C00C1FBFFF759FF4FF48062FF213F4801F01A
:10031C0072FA00252C463E4E33E041F28833082217
:10032C000DEB0201384800F0E8FA38BB41F2883393
:10033C0001220DF10701344800F0DFFA00283CD10E
:10034C0008210DEB0100FFF717FF9DF807308342E2
:10035C0037D12E4A04EB020C02AB03CB1051CCF874
:10036C0004100834A4B20835B4F5806F2DD2B5F55D
:10037C00604F3FD80620FFF70DFF02E01520FFF776
:10038C0009FF41F28830FFF72BFF4428C5D04528E0
:10039C00F7D154B114F0010F01D00134A4B22246AC
:1003AC001A493046FFF732FF40BB0620FFF7F2FE3A
:1003BC00C82000F067FB04B070BD1520FFF7EAFE03
:1003CC00DFE71520FFF7E6FEDBE74FF480620F490D
:1003DC003046FFF71BFF48B906F580664FF4806284
:1003EC00FF210A4801F007FA0024C0E71520FFF7A7
:1003FC00D1FEE0E71520FFF7CDFEDCE71520FFF777
:10040C00C9FED8E7741800082C0400202C0000202A
:10041C000020000838B5114B1C685D6872B60023CB
:10042C004FF0E02213610BE00D4A03F120004FF076
:10043C00FF3142F8201003F1600042F82010013324
:10044C00072BF1D9074800F0D8F900F0C1FA064B98
:10045C00024A9A6084F30888A847FEE70020000847
:10046C0000E100E02C04002000ED00E072B6FEE795
:10047C0000B591B02822002106A801F0BCF9002398
:10048C0001930293039304930593012206924FF474
:10049C00803307930A9202220D920E934FF4E013CD
:1004AC000F9306A800F018FB80B90F2301930221CB
:1004BC000291002303934FF480620492059301A8E8
:1004CC0000F03CFD20B911B05DF804FBFFF7CEFF46
:1004DC00FFF7CCFF08B500F0B1FAFFF7C9FF00F049
:1004EC0005F8FFF7DBFEFFF795FF000008B50A489B
:1004FC000A4B03604FF4E133436000238360C36015
:10050C0003610C2242618361C36100F046F900B9BA
:10051C0008BDFFF7ABFFFBE72C04002000380140BF
:10052C0010B586B0002302930393049305930268DD
:10053C00174B9A4201D006B010BD03F558439A6987
:10054C0042F480429A619A6902F480420092009AC5
:10055C009A6942F004029A619B6903F004030193C7
:10056C00019B4FF40073029302230393032305931F
:10057C00084C02A9204600F0BDFD4FF480630293A5
:10058C0000230393049302A9204600F0B3FDD2E7A5
:10059C00003801400008014008B50268074B9A4238
:1005AC0000D008BD064A936923F4804393614FF44D
:1005BC00C061044800F0ACFEF3E700BF0038014016
:1005CC000010024000080140FEE7FEE7FEE7FEE7F0
:1005DC00FEE770477047704708B500F041FA08BD58
:1005EC0082B00E4B9A6942F001029A619A6902F04C
:1005FC0001020092009ADA6942F08052DA61DB69FA
:10060C0003F080530193019B054A536823F0E06388
:10061C0043F00073536002B0704700BF00100240FB
:10062C0000000140026802F10C0353E8003F23F480
:10063C0090730C3242E800310029F3D1026802F1C8
:10064C00140353E8003F23F00103143242E8003155
:10065C000029F3D1036B012B05D0202380F8423005
:10066C00002303637047026802F10C0353E8003F58
:10067C0023F010030C3242E800310029F3D1ECE7EF
:10068C0010B504460268136923F44053C1680B4348
:10069C00136183680269134342691A430168CB688A
:1006AC0023F4B05323F00C031343CB60026853695B
:1006BC0023F4407381690B4353610268134B9A42D4
:1006CC0020D000F0F7FC024602EB820202EB820221
:1006DC0063689B00B2FBF3F20D48A0FB02314909A1
:1006EC00642303FB11231B013233A0FB03035B09BF
:1006FC0003F0F00202EB011203F00F032168134424
:10070C008B6010BD00F0E6FC0246DDE700380140CE
:10071C001F85EB512DE9F04383B005460E46174675
:10072C009946DDF828802B681C6836EA04040CBF57
:10073C0001240024BC4228D1B8F1FF3FF3D000F0D3
:10074C009BF9A0EB0900404523D8B8F1000F22D04B
:10075C002B68DA6812F0040FE5D0802EE3D0402E1F
:10076C00E1D01A6812F0080FDDD0002401941A6849
:10077C0001925B680193019B2846FFF753FF082306
:10078C006B6485F84040012000E0002003B0BDE818
:10079C00F0830320FAE70320F8E760B310B50446B2
:1007AC0090F8413013B3242384F841302268D36885
:1007BC0023F40053D3602046FFF762FF22681369CD
:1007CC0023F4904313612268536923F02A03536185
:1007DC002268D36843F40053D36000206064202364
:1007EC0084F8413084F84230606310BD80F84030AA
:1007FC00FFF796FED7E701207047B0B110B504465D
:10080C00242380F841300268D36823F40053D3606A
:10081C00FFF7C2FE0020606484F8410084F84200B7
:10082C002063606384F8400010BD012070472DE9FF
:10083C00F04182B01E4690F84130DBB2202B56D1ED
:10084C0004460D469046002955D00AB901204FE0C8
:10085C0000234364212380F8413000F00DF9074652
:10086C00A4F82480A4F82680A368B3F5805F02D096
:10087C004FF0000814E023692BB34FF000080FE091
:10088C00202384F84130032032E038F8023B226800
:10089C00C3F308035360E28C92B2013A92B2E28441
:1008AC00E38C9BB293B100963B46002280212046FC
:1008BC00FFF730FF0028E3D1002DE6D015F8012B0F
:1008CC0023685A60E7E7A8460025E9E700963B460F
:1008DC00002240212046FFF71DFF18B9202384F881
:1008EC00413005E0202384F84130032000E0022051
:1008FC0002B0BDE8F0810120FAE72DE9F04182B0A9
:10090C001E4690F84230DBB2202B59D104460D46DE
:10091C009046002958D00AB9012052E000234364C4
:10092C00222280F84220036300F0A6F80746A4F8C0
:10093C002C80A4F82E80A368B3F5805F02D04FF012
:10094C0000081CE0236913B14FF0000817E0A8461B
:10095C00002514E0202384F84230032031E0236882
:10096C005B68C3F3080328F8023B03E023685B6869
:10097C002B700135E28D92B2013A92B2E285E38D91
:10098C009BB2C3B100963B46002220212046FFF7C4
:10099C00C1FE0028DED1002DE1D0A368B3F5805F45
:1009AC00E4D013B92369002BE0D023685B6803F013
:1009BC007F032B70DDE7202384F84230002000E019
:1009CC00022002B0BDE8F0810120FAE77047000078
:1009DC0010B5064B4FF0FF321A6100241C61DA602F
:1009EC00DC60FFF7F3FF204610BD00BF0010024093
:1009FC0010B504460E4B1A784FF47A73B3FBF2F32E
:100A0C000C4A1068B0FBF3F000F056FD68B90F2CDF
:100A1C0001D901200AE0002221464FF0FF3000F0FE
:100A2C003BFD054B1C60002000E0012010BD00BF09
:100A3C0000000020080000200400002008B5074A30
:100A4C00136843F010031360032000F013FD0F2014
:100A5C00FFF7CEFFFFF7C4FD002008BD00200240C9
:100A6C00034A1168034B1B780B441360704700BF9B
:100A7C007404002000000020014B1868704700BF70
:100A8C007404002038B50446FFF7F6FF0546B4F1B0
:100A9C00FF3F02D0044B1B781C44FFF7EDFF401BBB
:100AAC00A042FAD338BD00BF0000002082B0084B32
:100ABC001B68084AA2FB03235B0A00FB03F30193A8
:100ACC0000BF019B5A1E0192002BF9D102B0704756
:100ADC0008000020D34D6210002800F0F18170B5A1
:100AEC0082B00446036813F0010F2CD0994B5B685D
:100AFC0003F00C03042B1DD0964B5B6803F00C0326
:100B0C00082B12D06368B3F5803F41D0002B55D130
:100B1C0003F1804303F504331A6822F480321A601F
:100B2C001A6822F480221A6037E08A4B5B6813F44F
:100B3C00803FE7D0874B1B6813F4003F03D06368FA
:100B4C00002B00F0BF81236813F0020F75D0814B8E
:100B5C005B6813F00C0F5FD07E4B5B6803F00C03EB
:100B6C00082B54D02369002B00F08A807A4B012289
:100B7C001A60FFF781FF0546764B1B6813F0020FD6
:100B8C0075D1FFF779FF401B0228F5D903209EE1B0
:100B9C00704A136843F480331360636843B3FFF700
:100BAC006BFF05466B4B1B6813F4003FCBD1FFF773
:100BBC0063FF401B6428F5D9032088E1B3F5A02F0F
:100BCC0009D0644B1A6822F480321A601A6822F435
:100BDC0080221A60E1E703F18043A3F53C331A68E5
:100BEC0042F480221A601A6842F480321A60D4E708
:100BFC00FFF742FF0546574B1B6813F4003FA2D08A
:100C0C00FFF73AFF401B6428F5D903205FE1514BF5
:100C1C005B6813F4803FA5D14E4B1B6813F0020F99
:100C2C0003D02369012B40F04F814A4A136823F00B
:100C3C00F803616943EAC1031360236813F0080FDA
:100C4C0033D0A369002B5CD0434B0122C3F8802422
:100C5C00FFF712FF05463F4B5B6A13F0020F21D1E1
:100C6C00FFF70AFF401B0228F5D903202FE1394A70
:100C7C00136823F0F803616943EAC1031360DCE7EE
:100C8C00354B00221A60FFF7F7FE0546314B1B6807
:100C9C0013F0020FD1D0FFF7EFFE401B0228F5D95D
:100CAC00032014E10120FFF701FF236813F0040F68
:100CBC0000F09680274BDB6913F0805F34D1254B15
:100CCC00DA6942F08052DA61DB6903F080530193F8
:100CDC00019B0125214B1B6813F4807F26D0E36810
:100CEC00012B3DD0002B53D103F1804303F504338A
:100CFC001A6A22F001021A621A6A22F004021A62BB
:100D0C0033E0154B0022C3F88024FFF7B5FE0546EF
:100D1C00104B5B6A13F0020FC7D0FFF7ADFE401B00
:100D2C000228F5D90320D2E00025D3E70B4A13683B
:100D3C0043F480731360FFF79FFE0646074B1B6856
:100D4C0013F4807FCBD1FFF797FE801B6428F5D975
:100D5C000320BCE000100240000042420070004042
:100D6C005F4A136A43F001031362E36833B3FFF77E
:100D7C0083FE06465A4B1B6A13F0020F2FD1FFF766
:100D8C007BFE801B41F288339842F3D903209EE00E
:100D9C00052B09D0524B1A6A22F001021A621A6A08
:100DAC0022F004021A62E0E74D4B1A6A42F0040288
:100DBC001A621A6A42F001021A62D6E7FFF75CFE69
:100DCC000646474B1B6A13F0020F08D0FFF754FE80
:100DDC00801B41F288339842F3D9032077E0E5B9C0
:100DEC00E369002B72D03E4A526802F00C02082ACA
:100DFC0056D0022B17D03B4B00221A66FFF73CFE55
:100E0C000446374B1B6813F0007F47D0FFF734FEC6
:100E1C00001B0228F5D9032059E0314AD36923F08D
:100E2C008053D361DCE72F4B00221A66FFF724FEB8
:100E3C0005462B4B1B6813F0007F06D0FFF71CFEFA
:100E4C00401B0228F5D9032041E0236AB3F5803F0B
:100E5C001AD023494B6823F47413226A606A024344
:100E6C0013434B601F4B01221A66FFF705FE044625
:100E7C001B4B1B6813F0007F0ED1FFF7FDFD001B11
:100E8C000228F5D9032022E0154A536823F40033D5
:100E9C00A1680B435360DCE7002018E0002016E04B
:100EAC00012B16D00E4B5B6803F48031226A914201
:100EBC0011D103F47013626A93420ED1002006E044
:100ECC0001207047012002E0012000E0002002B068
:100EDC0070BD0120FBE70120F9E70120F7E700BF17
:100EEC0000100240000042420F4B5B6803F00C0202
:100EFC00082A01D00D487047C3F383420C49885C23
:100F0C0013F4803F0BD0084B5B68C3F34043094A92
:100F1C00D35C064A02FB00F0B0FBF3F07047064BC3
:100F2C0003FB00F0704700BF0010024000127A0073
:100F3C00801800087C18000800093D00002800F00B
:100F4C00A08070B50D460446524B1B6803F0070396
:100F5C008B420BD24F4A136823F007030B431360E9
:100F6C00136803F007038B4240F08D80236813F065
:100F7C00020F17D013F0040F04D0474A536843F400
:100F8C00E0635360236813F0080F04D0424A53689F
:100F9C0043F460535360404A536823F0F003A16854
:100FAC000B435360236813F0010F31D06368012B9E
:100FBC0020D0022B25D0384A126812F0020F64D0D0
:100FCC0035494A6822F0030213434B60FFF754FD86
:100FDC000646314B5B6803F00C036268B3EB820F7F
:100FEC0016D0FFF749FD801B41F288339842F0D9A7
:100FFC00032045E0284A126812F4003FE0D101209A
:10100C003EE0254A126812F0007FD9D1012037E06A
:10101C00204B1B6803F00703AB420AD91D4A136827
:10102C0023F007032B431360136803F00703AB4251
:10103C002DD1236813F0040F06D0174A536823F4FC
:10104C00E063E1680B435360236813F0080F07D08B
:10105C00114A536823F46053216943EAC103536076
:10106C00FFF742FF0C4B5B68C3F303130B4AD35CD3
:10107C00D8400B4B18600B4B1868FFF7B9FC0020DD
:10108C0070BD012070470120FAE70120F8E701202C
:10109C00F6E700BF0020024000100240981800083C
:1010AC000800002004000020014B1868704700BFA6
:1010BC000800002008B5FFF7F7FF044B5B68C3F38B
:1010CC000223034AD35CD84008BD00BF0010024085
:1010DC009018000808B5FFF7E7FF044B5B68C3F3F3
:1010EC00C223034AD35CD84008BD00BF00100240A5
:1010FC009018000870B582B00024A446A1E07E4D83
:10110C00AB4214D00CD8A5F58015AB420FD005F529
:10111C007025AB420BD0A5F58015AB4210D106E083
:10112C00764DAB4203D005F58035AB4208D18B68C8
:10113C00002B50D0012B49D04261082400E0CC6830
:10114C00BEF1FF0F49D806464FEA8C0233680F25D3
:10115C00954023EA050304FA02F2134333604B680B
:10116C0013F0805F6BD0664B9A6942F001029A6172
:10117C009B6903F001030193019B4FEA9C02951CB0
:10118C00604B53F825600CF00305AD000F23AB400A
:10119C0026EA03065C4B984226D003F580639842FE
:1011AC0000F08C8003F58063984200F0898003F591
:1011BC008063984216D0042317E0CC680434BFE750
:1011CC00CC680834BCE7CC680C34B9E7026108245D
:1011DC00B6E70024B4E70424B2E7061DACF108021C
:1011EC009200B3E7032300E00023AB403343023209
:1011FC00444D45F822304B6813F4801F62D0434AAB
:10120C00936843EA0E0393604B6813F4001F5FD09E
:10121C003E4AD36843EA0E03D3604B6813F4003F95
:10122C005CD03A4A536843EA0E0353604B6813F49C
:10123C00803F59D0354A136843EA0E0313600CF112
:10124C00010C0B6833FA0CF254D0012202FA0CF2A6
:10125C0003EA020E32EA0303F1D14B68122B3FF67C
:10126C004EAF122B3FF66CAF01A555F823F000BF23
:10127C003B1100084B110008CD110008DF110008CC
:10128C004D1100084D1100084D1100084D110008BA
:10129C004D1100084D1100084D1100084D110008AA
:1012AC004D1100084D1100084D1100084D1100089A
:1012BC004D110008C7110008D3110008012394E751
:1012CC00022392E7114A936823EA0E0393609BE78B
:1012DC000E4AD36823EA0E03D3609EE70B4A536889
:1012EC0023EA0E035360A1E7084A136823EA0E03AE
:1012FC001360A4E702B070BD000022100000311092
:10130C0000100240000001400008014000040140B0
:10131C0000226BE0032500E0002505FA04F4644587
:10132C0042D0FF2B5AD886469500DEF800404FF08D
:10133C000F0C0CFA05FC24EA0C044FF0040C0CFA0C
:10134C0005FC44EA0C04CEF80040C46824EA03030C
:10135C00C360013231FA02F346D0012393400B40B3
:10136C00F7D09608B51C264C54F8255002F003040F
:10137C00A4004FF00F0C0CFA04FE0EEA050C214DE4
:10138C00A842C9D005F58065A84209D005F580654D
:10139C00A84207D005F58065A842BBD00425BCE760
:1013AC000125BAE70225B8E7174C256825EA03059D
:1013BC002560656825EA03056560E56825EA03058F
:1013CC00E560A56825EA0305A5600D4FB41C57F828
:1013DC00245025EA0E0547F82450A2E700F1040E2C
:1013EC00A2F10805AD00A0E7F0BD013231FA02F31D
:1013FC0005D0012393400B40F7D0F0B5B1E770470F
:10140C00000001400008014000040140002808DBF6
:10141C000901C9B200F1604000F5614080F8001389
:10142C00704700F00F000901C9B2014B1954704705
:10143C0014ED00E000B500F00700C0F1070CBCF1A2
:10144C00040F28BF4FF0040C031D062B0FD9C31E2D
:10145C004FF0FF3E0EFA0CF021EA000199400EFA13
:10146C0003FE22EA0E0241EA02005DF804FB0023AF
:10147C00EEE70000074AD36823F4E0631B041B0C5F
:10148C00000200F4E060034343F0BF6343F4003315
:10149C00D360704700ED00E010B50446054BD868EA
:1014AC00C0F30220FFF7C6FF01462046FFF7AEFF50
:1014BC0010BD00BF00ED00E00138B0F1807F0BD211
:1014CC004FF0E0235861054AF02182F823100020E8
:1014DC00986107221A6170470120704700ED00E007
:1014EC00044B0022DA61044A136943F001031361CF
:1014FC00018070477804002000200240194BDB6803
:10150C0013F0100305D0184AD36943F00203D361DA
:10151C001023144AD26812F0040F06D01249CA697B
:10152C0042F00102CA6143F004030E4AD26912F080
:10153C00010F09D00C49CA6942F00402CA61094979
:10154C00CA6922F00102CA6140F20112934202D030
:10155C00044AD3607047034AD36923F00103D36173
:10156C00704700BF00200240780400200A4B1B6922
:10157C0013F0800F0BD0084B084A5A6002F18832E6
:10158C005A601B6913F0800F03D1002070470020B4
:10159C0070470120704700BF0020024023016745BF
:1015AC00034A136943F0800313610020704700BFA6
:1015BC000020024038B50446FFF75EFA0546164B8C
:1015CC00DB6813F0010F0AD0B4F1FF3FF7D024B160
:1015DC00FFF752FA401BA042F1D903201BE00E4B3F
:1015EC00DB6813F0200F02D00B4B2022DA600A4B81
:1015FC00DB6813F0100F0BD1074BDB6913F0010FF5
:10160C0006D1054BDB6813F0040F01D1002002E07A
:10161C00FFF774FF012038BD002002402DE9F8438C
:10162C001E46244B1B7E012B41D004460F46904690
:10163C00204B01221A764CF25030FFF7BBFF0346C9
:10164C0078BB012C08D0022C03D04FF004091C46A7
:10165C0007E04FF00209FAE74FF00109F7E7013410
:10166C00E4B24C451DD22101C1F12002A1F12003AD
:10167C0028FA01F106FA02F2114326FA03F3194390
:10168C0089B207EB4400FFF72BFF4CF25030FFF709
:10169C0091FF094B1D6925F001051D6103460028CA
:1016AC00DDD0044A002111761846BDE8F8830223E8
:1016BC00FAE700BF7804002000200240064B00220D
:1016CC00DA61064B1A6942F004021A611A6942F097
:1016DC0040021A61704700BF7804002000200240CD
:1016EC00064B0022DA61064B1A6942F002021A61BB
:1016FC0058611A6942F040021A6170477804002060
:10170C0000200240264B1B7E012B46D070B50546AF
:10171C000E46234B01221A760368022B20D04CF282
:10172C005030FFF747FF90BB4FF0FF333360AC688E
:10173C000121EA68AB6803EB8223A34228D9204637
:10174C00FFF7CEFF4CF25030FFF734FF154A136908
:10175C0023F0020313610146B8B904F58064E8E78D
:10176C004CF25030FFF726FF08B1012110E00120A8
:10177C00FFF7A4FF4CF25030FFF71CFF0146094A5B
:10178C00136923F00403136102E0346000E00121CB
:10179C00034B00221A76084670BD0221084670479A
:1017AC00780400200020024070470000FFF7FCFF87
:1017BC000B480C490C4A002302E0D458C4500433A3
:1017CC00C4188C42F9D3094A094C002301E0136078
:1017DC000432A242FBD300F017F8FEF77BFE7047F1
:1017EC00000000200C000020B018000810000020A1
:1017FC0098040020FEE703460244934200D1704750
:10180C0003F8011BF9E7000070B500260C4D0D4CD8
:10181C00641BA410A64209D100F01AF800260A4D48
:10182C000A4C641BA410A64205D170BD55F8043BAC
:10183C0098470136EEE755F8043B98470136F2E736
:10184C00A8180008A8180008A8180008AC18000868
:10185C00F8B500BFF8BC08BC9E467047F8B500BF91
:08186C00F8BC08BC9E46704761
:10187400424F4F540D0A0000010200000203040508
:10188400060708090A0B0C0D0E0F101000000000CB
:101894000102030400000000000000000102030430
:0418A4000607080922
:0418A8003101000802
:0418AC000D01000822
:0C18B000010000001000000000127A008F
:04000005080017B91F
:00000001FF
